:0400000063EF00F0BA
:100008004982FACF0DF0FBCF0EF0D9CF0FF0DACF3F
:1000180010F0F3CF11F0F4CF12F0F6CF13F0F7CFC2
:1000280014F0F8CF15F0F5CF16F0F2AC1EEF00F093
:1000380020EF00F04DEF00F0A0A625EF00F027EF2D
:1000480000F03DEF00F0A1A62CEF00F02EEF00F03D
:100058003DEF00F002D83BEF00F00500FA6E455086
:10006800FD6E4650FE6EF850FF6EFA5012004DEFCE
:1000780000F09DA642EF00F044EF00F04DEF00F0D5
:100088009EA649EF00F04BEF00F04DEF00F02EEF89
:1000980000F016C0F5FF15C0F8FF14C0F7FF13C035
:1000A800F6FF12C0F4FF11C0F3FF10C0DAFF0FC053
:1000B800D9FF0EC0FBFF0DC0FAFF49921100BCEF3B
:0200C80008F03E
:100800000092120C12FE113608F6083812A60A8A57
:100810001282127A1272126A1262125A12521286DC
:100820000B50726F62616E646F2E2E2E004C43442B
:050830002E2E2E000039
:10083600D3EC08F00009D8B423EF04F025EF04F058
:1008460060EF04F033EF04F045EC09F07AEF04F0C2
:1008560041EC09F07AEF04F039EC09F07AEF04F094
:1008660036C008F020EE2DF002D844EF04F0050063
:10087600FA6EDE50FD6EDE50FE6EF850FF6EFA50D8
:1008860012000A6E0B6A0B50000AD8B44DEF04F042
:100896002FEF04F00A50010AD8B42FEF04F0030A30
:1008A600D8B427EF04F0010AD8B42BEF04F0070AF6
:1008B600D8B42FEF04F02FEF04F044903EC0D9FFD8
:1008C6003FC0DAFF3E4A3F2ADF504DEC09F04006B2
:1008D600D8A0410640504110D8A474EF04F076EF3A
:1008E60004F079EF04F0060E7AEF04F0030E12001E
:1008F6006AEC09F03EC0D9FF3FC0DAFFDF6E3E4A20
:100906003F2A4006D8A0410640504110D8B48EEF89
:1009160004F090EF04F095EF04F054EC09F0050EA6
:10092600CBEF04F04486A0EF04F02DEC09F0CBEFFA
:1009360004F031EC09F0CBEF04F033C008F002D834
:10094600AFEF04F00500FA6E2750FD6E2850FE6EDC
:10095600F850FF6EFA5012000A6E0B6A0B50000A2E
:10096600D8B4B8EF04F09CEF04F00A50010AD8B4EA
:100976009CEF04F0030AD8B498EF04F0010AD8B447
:1009860098EF04F0070AD8B49CEF04F09CEF04F04B
:100996001200E7EC08F0F28EF28C0B0E0001696F84
:1009A600260E686F5D0EE82EFED7682FFCD7692FDE
:1009B600FAD700D0F6EC05F00F015D6B94940000B9
:1009C600290E0001696F960E686F7F0EE82EFED71E
:1009D600682FFCD7692FFAD721EC09F08284010E23
:1009E6000001656F210E666F010E30EC07F0290ECF
:1009F6000001696F960E686F7F0EE82EFED7682F8E
:100A0600FCD7692FFAD721EC09F0010E0001656FBA
:100A16002D0E666F010E30EC07F08294E3EF04F0C2
:100A260063EF00F0196E010E1A6E44B41DEF05F067
:100A36001FEF05F051EF05F019C03DF044924484D4
:100A460044900E0E426E010E3C6EF40E3B6E4486D2
:100A5600E00E276E120E286E336AE00E296E120E15
:100A66002A6E346AE00E2B6E120E2C6E356AE00E7C
:100A76002D6E120E2E6E366ADC0E2F6E120E306E34
:100A8600376AA20E176E120E186E12EC09F062EC9F
:100A960009F0ADEC08F05AEC09F01A6A1A50120087
:100AA600448663EF05F03DEC09F08EEF05F068EC47
:100AB60009F0030E8EEF05F039EC09F08EEF05F024
:100AC60033C008F002D872EF05F00500FA6E275021
:100AD600FD6E2850FE6EF850FF6EFA5012000A6E38
:100AE6000B6A0B50000AD8B47BEF05F05FEF05F0F8
:100AF6000A50010AD8B45FEF05F0030AD8B456EFDE
:100B060005F0010AD8B456EF05F0070AD8B45AEF33
:100B160005F05FEF05F012000001636FA7EF05F027
:100B260062517F0F646FBBEF05F06251BF0F646FB8
:100B3600BBEF05F06251930F646FBBEF05F0625196
:100B4600D30F646FBBEF05F000016351010AD8B4FF
:100B560093EF05F0030AD8B498EF05F0010AD8B46C
:100B66009DEF05F0070AD8B4A2EF05F0BBEF05F03C
:100B7600645128EC06F0850EE82EFED70000120020
:100B86004490020E436ED0EF05F03DEC09F0F5EF10
:100B960005F039EC09F0F5EF05F035C008F020EE68
:100BA6002BF002D8E1EF05F00500FA6EDE50FD6E7F
:100BB600DE50FE6EF850FF6EFA5012000A6E0B6A97
:100BC6000B50000AD8B4EAEF05F0CCEF05F00A5056
:100BD600020AD8B4C8EF05F0010AD8B4C8EF05F088
:100BE600CCEF05F01200000E9DEC08F0486A485064
:100BF6000F0B2009486EBEEC07F01A0E0001626F5B
:100C0600F80EE82EFED7622FFCD70000280E28EC3F
:100C160006F0350EE82EFED700000C0E28EC06F086
:100C2600350EE82EFED70000060E28EC06F00B0E59
:100C36000001626F620EE82EFED7622FFCD700001D
:100C460021EC09F00DEC09F012000001616F17ECC0
:100C560009F0489061C060F0F00E0001601748503E
:100C66000F0B6011486EBEEC07F01A0E0001606FA4
:100C7600F80EE82EFED7602FFCD7000061C060F0AA
:100C86000001603BF00E601748500F0B6011486E74
:100C9600BEEC07F01A0E0001606FF80EE82EFED7C4
:100CA600602FFCD70000120066EC09F044A05EEF4E
:100CB60006F060EF06F06CEF06F0D3EC08F00009E2
:100CC600D8B468EF06F06AEF06F06CEF06F00F0E88
:100CD600426E4250020DF350010F0C6E0CC0F6FF2F
:100CE600080EF76E02D884EF06F00500FA6E0900CA
:100CF600F550FD6E0900F550FE6EF850FF6EFA5085
:100D06001200426E1200236E235015EC05F0000906
:100D1600D8B490EF06F092EF06F087EF06F01FC00A
:100D260017F020C018F021C019F022C01AF07BEC91
:100D360008F0000E1B6E000E1C6E000E1D6E000EDF
:100D46001E6EC9EC08F025EC09F0A9EC07F0E806E0
:100D5600D8B4B0EF06F0B2EF06F0A8EF06F0120036
:100D66001A6E17501810D8B4BBEF06F0BDEF06F098
:100D7600CFEF06F01A50020DF350270FD96EDA6A3C
:100D860017C0DEFF18C0DDFF1A50330FD96EDA6ABE
:100D960019C0DFFFDEEF06F01A50020DF350270FE1
:100DA600D96EDA6AE00EDE6E120EDD6E1A50330F61
:100DB600D96EDA6ADF6A1200046E01500210D8B4E6
:100DC600E7EF06F0E9EF06F0FBEF06F00450020D40
:100DD600F350270FD96EDA6A01C0DEFF02C0DDFFCD
:100DE6000450330FD96EDA6A03C0DFFF0AEF07F04B
:100DF6000450020DF350270FD96EDA6AE00EDE6E4C
:100E0600120EDD6E0450330FD96EDA6ADF6A1200F5
:100E16000001616F17EC09F0488061C060F0F00EC8
:100E26000001601748500F0B6011486EBEEC07F0CA
:100E3600A00E00D0E82EFDD761C060F00001603B37
:100E4600F00E601748500F0B6011486EBEEC07F0AD
:100E5600A00E00D0E82EFDD712000001676F65C016
:100E660062F0000167518FEC05F066C0F6FF080ED0
:100E7600F76E0800F5500BEC07F00001662B66C014
:100E8600F6FF080EF76E0800F5500009D8A44EEFDD
:100E960007F050EF07F038EF07F01200176E010E5B
:100EA600186E44B259EF07F05BEF07F06DEF07F0ED
:100EB6004482186A1750D8B463EF07F065EF07F05D
:100EC60069EF07F0010E426E6BEF07F0020E426EFD
:100ED6005CEC09F0185012000850D96EDA6A020E5E
:100EE600D926DF50096E09C001F0026A0850D96E92
:100EF600DA6ADECF03F0DDCF04F08CEC08F0000EEA
:100F0600056E000E066E000E076EDDEC08F0020E92
:100F160012000850D96EDA6A020ED926DF50096E21
:100F260009C001F0026A0850D96EDA6ADECF03F012
:100F3600DDCF04F08CEC08F0000E056E000E066E98
:100F4600000E076EDDEC08F0020E1200010E176EA1
:100F560044B2B0EF07F0B2EF07F0BCEF07F04494ED
:100F66003D6862EC09F05EEC09F060EC09F043C004
:100F760017F01750120048C024F0488448C025F0E6
:100F8600489448C026F0240E1F6E206A000E226E7A
:100F9600030E216E270E86EC06F0120008C001F043
:100FA600026A000E046E010E036E8CEC08F0000E51
:100FB600056E000E066E000E076EDDEC08F0040EE0
:100FC600120008C001F0026A000E046E020E036EE3
:100FD6008CEC08F0000E056E000E066E000E076E15
:100FE600DDEC08F0020E120008C001F0026A000EE5
:100FF600046E010E036E8CEC08F0000E056E000EFA
:10100600066E000E076EDDEC08F0020E120008C038
:1010160001F0026A000E046E020E036E8CEC08F0FC
:10102600000E056E000E066E000E076EDDEC08F073
:10103600040E120008C001F0026A000E046E020ED1
:10104600036E8CEC08F0000E056E000E066E000EA8
:10105600076EDDEC08F0020E120008C001F0026A0D
:10106600000E046E010E036E8CEC08F0000E056E89
:10107600000E066E000E076EDDEC08F0020E120082
:1010860008C001F0026A000E046E010E036E8CECBD
:1010960008F0000E056E000E066E000E076EDDEC03
:1010A60008F0040E120008C001F0026A000E046E79
:1010B600020E036E8CEC08F0000E056E000E066E36
:1010C600000E076EDDEC08F0040E1200896A8A6ACB
:1010D6008B6A92689368C70E946EC40E0F015D6F9B
:1010E6003C0E5C6F2F0E5B6F030E856EF19E120039
:1010F60044A680EF08F082EF08F08BEF08F017C0E7
:101106003EF018C03FF019C040F01AC041F04496B6
:10111600120044A691EF08F093EF08F09CEF08F058
:1011260001C03EF002C03FF003C040F004C041F0F1
:1011360044961200266E2650246E256A24C01FF09F
:1011460025C020F0000E226E010E216E270E86ECC1
:1011560006F01200C6BAB2EF08F0B4EF08F0BBEF23
:1011660008F0C76A080EC66EC56A270EC86EC68A1C
:10117600120000EE27F0220EEE6AE806FDE1499025
:101186004992000EF86E0001CCEF04F01BC017F078
:101196001CC018F01DC019F0020EB3EC06F01200C8
:1011A600C5BCD8EF08F0DBEF08F0010EDCEF08F065
:1011B600000E120005C001F006C002F007C003F0E1
:1011C600000EDFEC06F0120064EC09F0F0EC08F01B
:1011D60069EC08F0F8EC08F01200C76A080EC66E53
:1011E600C56A270EC86EC69A1200720ED36ED26AF0
:1011F600800E9B6EB56A120044803D503D244DEC36
:1012060009F0030E12004480D8803D344DEC09F0FD
:10121600050E1200488648509DEC08F0120017C0D3
:1012260045F018C046F01200850EE82EFED70000E5
:10123600120044906CEC09F0040E1200010E28EC2A
:1012460006F01200000E51EC07F012004492436AB9
:101256000E0E120057EC09F0090E120057EC09F0B9
:101266000A0E120054EC09F0050E120072EC09F099
:10127600000E120074EC09F0010E120074EC09F075
:10128600020E120074EC09F0010E12004492436A39
:101296000E0E1200016E01C0C9FF120057EC06F0D7
:1012A6001200C59AC5881200C58AC58812009D8697
:1012B6001200C58012009D961200C69A12009E96D4
:1012C6001200D09E12009E9612009E861200C950F1
:1012D6001200C5861200050E1200010E1200C5840A
:0612E6001200C582120097
:020000040030CA
:0E00000023285F3CFFD381FF0FC00FE00F40AD
:00000001FF
