:0400000063EF00F0BA
:100008004982FACF0DF0FBCF0EF0D9CF0FF0DACF3F
:1000180010F0F3CF11F0F4CF12F0F6CF13F0F7CFC2
:1000280014F0F8CF15F0F5CF16F0F2AC1EEF00F093
:1000380020EF00F04DEF00F0A0A625EF00F027EF2D
:1000480000F03DEF00F0A1A62CEF00F02EEF00F03D
:100058003DEF00F002D83BEF00F00500FA6E445087
:10006800FD6E4550FE6EF850FF6EFA5012004DEFCF
:1000780000F09DA642EF00F044EF00F04DEF00F0D5
:100088009EA649EF00F04BEF00F04DEF00F02EEF89
:1000980000F016C0F5FF15C0F8FF14C0F7FF13C035
:1000A800F6FF12C0F4FF11C0F3FF10C0DAFF0FC053
:1000B800D9FF0EC0FBFF0DC0FAFF4992110061EF96
:0200C80008F03E
:1008000000EC12C612B612DE09640DD612080E26CE
:10081000131E1316130E130613FE12F612E21282A3
:050820000E256400003C
:100826002250D96EDA6ADFCFF6FF080EF76E08009F
:10083600F550250AD8A422EF04F024EF04F0DDEFEA
:1008460004F02250D96EDA6ADF2A000E416E000EDD
:10085600406E40C046F0426843682250D96EDA6A5C
:10086600DF50266E26C0F6FF080EF76E0800F5501C
:10087600640AD8B441EF04F043EF04F051EF04F0FA
:1008860026C0F6FF080EF76E0800F550690AD8A4D0
:100896004FEF04F051EF04F0D7EF04F02350D96E78
:1008A600DA6A020EDF26DF5CD96EDA6ADECF27F05F
:1008B600DECF28F02250D96EDA6A2628DF6E200EA7
:1008C6002B6E28BE69EF04F06CEF04F0010E6DEF9D
:1008D60004F0000E256E2B062B50600FD96EDA6AD7
:1008E60027C017F028C018F0000E1A6E0A0E196EEF
:1008F600B2EC05F017C01DF018C01EF047EC08F06A
:100906001D50300FDF6E27C017F028C018F0000EFC
:100916001A6E0A0E196E51EC05F017C027F018C0B2
:1009260028F027502810D8B49BEF04F09DEF04F070
:10093600A5EF04F02B50D8A4A3EF04F0A5EF04F024
:100946006EEF04F02B50D8B4ABEF04F0ADEF04F02B
:10095600CCEF04F02550D8B4B3EF04F0B5EF04F0B3
:10096600CCEF04F02B062B50600FD96EDA6A2D0EF1
:10097600DF6ECCEF04F02B50600FD96EDA6ADF50D1
:10098600246E2450176E186A21C019F009EC06F07F
:100996002B2A200E2B18D8A4D3EF04F0D5EF04F0A1
:1009A600BEEF04F0EEEF04F02250D96EDA6ADF2AC9
:1009B600EEEF04F02250D96EDA6ADFCFF6FF080EAA
:1009C600F76E0800F550176E186A21C019F009EC89
:1009D60006F0D7EF04F0120036EC09F00009D8B49F
:1009E600F7EF04F0F9EF04F034EF05F007EF05F048
:1009F60093EC09F050EF05F08FEC09F050EF05F09D
:100A060087EC09F050EF05F08FC008F020EE86F075
:100A160002D818EF05F00500FA6EDE50FD6EDE50C6
:100A2600FE6EF850FF6EFA5012000A6E0B6A0B50FB
:100A3600000AD8B421EF05F003EF05F00A50010AC9
:100A4600D8B403EF05F0030AD8B4FBEF04F0010AAB
:100A5600D8B4FFEF04F0070AD8B403EF05F003EFAC
:100A660005F000019D9197C0D9FF98C0DAFF974B1A
:100A7600982BDF5097EC09F000019907D8A09A0748
:100A860099519A11D8A44AEF05F04CEF05F04FEFB3
:100A960005F0060E50EF05F0030E12001C6A1ABE92
:100AA60059EF05F057EF05F05FEF05F0196C1A1EC8
:100AB600D8B01A2A010E1C6E18BE66EF05F064EF58
:100AC60005F06CEF05F0176C181ED8B0182A010E49
:100AD6001C1A000E1E6E000E1D6E19501A10D8B488
:100AE60077EF05F079EF05F0A1EF05F0010E1B6E2B
:100AF60081EF05F0D89019361A361B2A1AAE86EF02
:100B060005F088EF05F07DEF05F0D8901D361E360E
:100B16001950175C1A501858D8A094EF05F096EFA4
:100B260005F09BEF05F01950175E1A50185A1D80F4
:100B3600D8901A3219321B2E88EF05F01C50D8B403
:100B4600A7EF05F0A9EF05F0ADEF05F01D6C1E1E31
:100B5600D8B01E2A1DC017F01EC018F012001C6A5D
:100B660018BEBAEF05F0B8EF05F0C0EF05F0176C48
:100B7600181ED8B0182A010E1C6E1ABEC7EF05F053
:100B8600C5EF05F0CBEF05F0196C1A1ED8B01A2A7E
:100B960019501A10D8B4D2EF05F0D4EF05F0F8EFDB
:100BA60005F0010E1B6EDCEF05F0D89019361A36EB
:100BB6001B2A1AAEE1EF05F0E3EF05F0D8EF05F0DA
:100BC6001950175C1A501858D8A0ECEF05F0EEEF44
:100BD60005F0F2EF05F01950175E1A50185AD89022
:100BE6001A3219321B2EE3EF05F01C50D8B4FEEF73
:100BF60005F000EF06F004EF06F0176C181ED8B0EB
:100C0600182A17C017F018C018F012001950D8B4D7
:100C16000FEF06F011EF06F019EF06F01950D8A401
:100C260017EF06F019EF06F01EEF06F01750B6ECB8
:100C360009F05DEF06F01950D96EDA6A090ED92669
:100C4600DE50DE10D8B42AEF06F02CEF06F045EFA2
:100C560006F01950D96EDA6A090ED9261950E16ED6
:100C6600E26A020EE126DE50E65CE650800A1E6E5F
:100C7600DE50800A1E58D8B043EF06F045EF06F066
:100C86005DEF06F01950D96EDA6A020ED926DF50EA
:100C96001A6E1950D96EDA6ADF501A24D96EDA6ADA
:100CA60017C0DFFF1950D96EDA6A020ED926DE2A7E
:100CB600000EDD221200000E0001AB6F000EAA6FBF
:100CC600000EAD6F000EAC6F4AEC09F0F28EF28C9E
:100CD6001F0E00019F6F710E9E6F1E0EE82EFED72F
:100CE6009E2FFCD79F2FFAD7000081B07DEF06F02C
:100CF6007FEF06F08DEF06F00001AC51AD11D8A4E0
:100D060087EF06F089EF06F08DEF06F0000EAD6F67
:100D1600010EAC6F0001AC05AD11D8A495EF06F03D
:100D260097EF06F078EF06F081A09CEF06F09EEFB5
:100D360006F078EF06F0000EAD6F000EAC6FAA4B12
:100D4600AB2BA00E306E210E316EAAC032F0ABC0B6
:100D560033F02DEC08F078EF06F063EF00F0AAEC24
:100D660009F097C0D9FF98C0DAFFDF6E0001974BF4
:100D7600982B9907D8A09A0799519A11D8B4C6EF1B
:100D860006F0C8EF06F0CDEF06F09EEC09F0050E72
:100D960003EF07F09D87D8EF06F07BEC09F003EF31
:100DA60007F07FEC09F003EF07F08CC008F002D8DB
:100DB600E7EF06F00500FA6E8051FD6E8151FE6E7A
:100DC600F850FF6EFA5012000A6E0B6A0B50000ABA
:100DD600D8B4F0EF06F0D4EF06F00A50010AD8B402
:100DE600D4EF06F0030AD8B4D0EF06F0010AD8B45F
:100DF600D0EF06F0070AD8B4D4EF06F0D4EF06F029
:100E0600120000019D8715EF07F08BEC09F040EF0B
:100E160007F0A8EC09F0030E40EF07F087EC09F0A5
:100E260040EF07F08CC008F002D824EF07F0050069
:100E3600FA6E8051FD6E8151FE6EF850FF6EFA50CB
:100E460012000A6E0B6A0B50000AD8B42DEF07F099
:100E560011EF07F00A50010AD8B411EF07F0030AA0
:100E6600D8B408EF07F0010AD8B408EF07F0070A6C
:100E7600D8B40CEF07F011EF07F0120000019D91B6
:100E8600020E9C6F4FEF07F08BEC09F074EF07F042
:100E960087EC09F074EF07F08EC008F020EE84F0BE
:100EA60002D860EF07F00500FA6EDE50FD6EDE50E8
:100EB600FE6EF850FF6EFA5012000A6E0B6A0B5067
:100EC600000AD8B469EF07F04BEF07F00A50020AA0
:100ED600D8B447EF07F0010AD8B447EF07F04BEF55
:100EE60007F01200A6EC09F000019DA17DEF07F0C6
:100EF6007FEF07F08CEF07F036EC09F00009D8B465
:100F060087EF07F089EF07F08CEF07F00F0E00016F
:100F16009B6F00019B51020DF350010F0C6E0CC02C
:100F2600F6FF080EF76E02D8A5EF07F00500FA6E79
:100F36000900F550FD6E0900F550FE6EF850FF6E83
:100F4600FA50120000019B6F1200046E015002104D
:100F5600D8B4B0EF07F0B2EF07F0C4EF07F00450D3
:100F6600020DF350800FD96EDA6A01C0DEFF02C0AF
:100F7600DDFF04508C0FD96EDA6A03C0DFFFD3EFB2
:100F860007F00450020DF350800FD96EDA6A600E36
:100F9600DE6E130EDD6E04508C0FD96EDA6ADF6AD0
:100FA60012002DC02FF0E0EF07F02CC021F02F0E1D
:100FB600226E2EC023F013EC04F02FC0F6FF080EAD
:100FC600F76E0800F5500009D8A4ECEF07F0EEEF35
:100FD60007F0D8EF07F0000E2D6E000E2C6E1200F3
:100FE6000850D96EDA6A020ED926DF50096E09C09A
:100FF60001F0026A0850D96EDA6ADECF03F0DDCF5F
:1010060004F00CEC09F0000E056E000E066E000EE4
:10101600076E40EC09F0020E12000850D96EDA6A2B
:10102600020ED926DF50096E09C001F0026A085087
:10103600D96EDA6ADECF03F0DDCF04F00CEC09F0EE
:10104600000E056E000E066E000E076E40EC09F0EF
:10105600020E1200320E346E30C035F0000E386EBD
:10106600000E376E000E3F6E000E3E6E350E2C6E75
:1010760031C02DF0340E2E6ED4EC07F030503724EC
:10108600D96EDA6ADF6A12001EBE4CEF08F04EEF28
:1010960008F054EF08F01DC01DF01EC01EF060EFF2
:1010A60008F01DC01FF01EC020F01F1E201E1F4A84
:1010B600202A1FC01DF020C01EF0120000EE60F0B6
:1010C6003E0EEE6AE806FDE100EE40F0090EEE6A1D
:1010D600E806FDE149904992000EF86E00015EEFC8
:1010E60006F008C001F0026A000E046E020E036EDE
:1010F6000CEC09F0000E056E000E066E000E076E73
:1011060040EC09F0020E120008C001F0026A000E5F
:10111600046E010E036E0CEC09F0000E056E000E57
:10112600066E000E076E40EC09F0020E120008C0B3
:1011360001F0026A000E046E010E036E0CEC09F05B
:10114600000E056E000E066E000E076E40EC09F0EE
:10115600040E120008C001F0026A000E046E020EB0
:10116600036E0CEC09F0000E056E000E066E000E06
:10117600076E40EC09F0040E120008C001F0026A86
:10118600000E046E010E036E0CEC09F0000E056EE7
:10119600000E066E000E076E40EC09F0040E1200FB
:1011A60008C001F0026A000E046E020E036E0CEC1B
:1011B60009F0000E056E000E066E000E076E40EC7E
:1011C60009F0020E120008C001F0026A000E046E59
:1011D600010E036E0CEC09F0000E056E000E066E95
:1011E600000E076E40EC09F0020E120008C001F076
:1011F600026A000E046E020E036E0CEC09F0000E7D
:10120600056E000E066E000E076E40EC09F0040E29
:10121600120000019DA712EF09F014EF09F01DEF6F
:1012260009F001C097F002C098F003C099F004C01D
:101236009AF09D971200700ED36ED26A800E9B6E46
:10124600B56AD2AE29EF09F02BEF09F024EF09F0C9
:101256001200896A8A6A8B6A030E936E0F015C6BB1
:101266008580F19E1200C5BC3BEF09F03EEF09F008
:10127600010E3FEF09F0000E120005C001F006C096
:1012860002F007C003F0000EA8EC07F01200A4EC71
:1012960009F053EC09F02CEC09F01EEC09F01200F1
:1012A600C76A080EC66EC56A770EC86EC69A120061
:1012B60000019D819651962597EC09F0030E1200C8
:1012C60000019D81D880963597EC09F0050E120035
:1012D60000019D91ACEC09F0040E120000019D93F3
:1012E6009C6B0E0E120000019D939C6B0E0E12005D
:1012F600A1EC09F0090E1200A1EC09F00A0E120089
:101306009EEC09F0050E1200B2EC09F0000E120078
:10131600B4EC09F0010E1200B4EC09F0020E120052
:10132600B4EC09F0010E1200016E01C0C9FF1200F3
:1013360075EC07F01200C59AC5881200C58AC588E3
:101346001200D09E12009E9612009E861200C95070
:101356001200C5861200050E1200010E1200C58489
:081366001200C5821200120002
:020000040030CA
:0E00000023285F3CFFD385FF0FC00FE00F40A9
:00000001FF
